{
  "_format": "hh-sol-artifact-1",
  "contractName": "raffle",
  "sourceName": "contracts/Raffle.sol",
  "abi": [
    {
      "inputs": [
        {
          "internalType": "address",
          "name": "vrfCoordniatorV2",
          "type": "address"
        },
        {
          "internalType": "uint256",
          "name": "entranceFee",
          "type": "uint256"
        },
        {
          "internalType": "bytes32",
          "name": "gasLane",
          "type": "bytes32"
        },
        {
          "internalType": "uint64",
          "name": "subscriptionId",
          "type": "uint64"
        },
        {
          "internalType": "uint32",
          "name": "callBackGasLimit",
          "type": "uint32"
        },
        {
          "internalType": "uint256",
          "name": "interval",
          "type": "uint256"
        }
      ],
      "stateMutability": "nonpayable",
      "type": "constructor"
    },
    {
      "inputs": [
        {
          "internalType": "address",
          "name": "have",
          "type": "address"
        },
        {
          "internalType": "address",
          "name": "want",
          "type": "address"
        }
      ],
      "name": "OnlyCoordinatorCanFulfill",
      "type": "error"
    },
    {
      "inputs": [],
      "name": "RAFFLE_NOT_OPEN",
      "type": "error"
    },
    {
      "inputs": [],
      "name": "Raffle_TransferFailed",
      "type": "error"
    },
    {
      "inputs": [
        {
          "internalType": "uint256",
          "name": "currentBalance",
          "type": "uint256"
        },
        {
          "internalType": "uint256",
          "name": "numPlayers",
          "type": "uint256"
        },
        {
          "internalType": "uint256",
          "name": "raffleState",
          "type": "uint256"
        }
      ],
      "name": "UP_KEEP_NOT_NEEDED",
      "type": "error"
    },
    {
      "anonymous": false,
      "inputs": [
        {
          "indexed": true,
          "internalType": "address",
          "name": "player",
          "type": "address"
        }
      ],
      "name": "RaffleEnter",
      "type": "event"
    },
    {
      "anonymous": false,
      "inputs": [
        {
          "indexed": true,
          "internalType": "uint256",
          "name": "requestId",
          "type": "uint256"
        }
      ],
      "name": "RequestedRaffleWinner",
      "type": "event"
    },
    {
      "anonymous": false,
      "inputs": [
        {
          "indexed": true,
          "internalType": "address",
          "name": "winner",
          "type": "address"
        }
      ],
      "name": "WinnerPicked",
      "type": "event"
    },
    {
      "inputs": [
        {
          "internalType": "bytes",
          "name": "",
          "type": "bytes"
        }
      ],
      "name": "checkUpkeep",
      "outputs": [
        {
          "internalType": "bool",
          "name": "upKeepNeeded",
          "type": "bool"
        },
        {
          "internalType": "bytes",
          "name": "",
          "type": "bytes"
        }
      ],
      "stateMutability": "nonpayable",
      "type": "function"
    },
    {
      "inputs": [],
      "name": "enterRaffle",
      "outputs": [],
      "stateMutability": "payable",
      "type": "function"
    },
    {
      "inputs": [],
      "name": "geRaffleState",
      "outputs": [
        {
          "internalType": "enum raffle.RaffleState",
          "name": "",
          "type": "uint8"
        }
      ],
      "stateMutability": "view",
      "type": "function"
    },
    {
      "inputs": [],
      "name": "getConfirmations",
      "outputs": [
        {
          "internalType": "uint256",
          "name": "",
          "type": "uint256"
        }
      ],
      "stateMutability": "pure",
      "type": "function"
    },
    {
      "inputs": [],
      "name": "getEntranceFee",
      "outputs": [
        {
          "internalType": "uint256",
          "name": "",
          "type": "uint256"
        }
      ],
      "stateMutability": "view",
      "type": "function"
    },
    {
      "inputs": [],
      "name": "getNumPlayers",
      "outputs": [
        {
          "internalType": "uint256",
          "name": "",
          "type": "uint256"
        }
      ],
      "stateMutability": "view",
      "type": "function"
    },
    {
      "inputs": [],
      "name": "getNumWords",
      "outputs": [
        {
          "internalType": "uint256",
          "name": "",
          "type": "uint256"
        }
      ],
      "stateMutability": "pure",
      "type": "function"
    },
    {
      "inputs": [
        {
          "internalType": "uint256",
          "name": "index",
          "type": "uint256"
        }
      ],
      "name": "getPlayers",
      "outputs": [
        {
          "internalType": "address",
          "name": "",
          "type": "address"
        }
      ],
      "stateMutability": "view",
      "type": "function"
    },
    {
      "inputs": [],
      "name": "getTimeStamp",
      "outputs": [
        {
          "internalType": "uint256",
          "name": "",
          "type": "uint256"
        }
      ],
      "stateMutability": "view",
      "type": "function"
    },
    {
      "inputs": [
        {
          "internalType": "bytes",
          "name": "",
          "type": "bytes"
        }
      ],
      "name": "performUpkeep",
      "outputs": [],
      "stateMutability": "nonpayable",
      "type": "function"
    },
    {
      "inputs": [
        {
          "internalType": "uint256",
          "name": "requestId",
          "type": "uint256"
        },
        {
          "internalType": "uint256[]",
          "name": "randomWords",
          "type": "uint256[]"
        }
      ],
      "name": "rawFulfillRandomWords",
      "outputs": [],
      "stateMutability": "nonpayable",
      "type": "function"
    },
    {
      "inputs": [],
      "name": "viewRecentWinner",
      "outputs": [
        {
          "internalType": "address",
          "name": "",
          "type": "address"
        }
      ],
      "stateMutability": "view",
      "type": "function"
    }
  ],
  "bytecode": "0x6101606040523480156200001257600080fd5b50604051620017b7380380620017b7833981810160405281019062000038919062000266565b858073ffffffffffffffffffffffffffffffffffffffff1660808173ffffffffffffffffffffffffffffffffffffffff1681525050508460a081815250508573ffffffffffffffffffffffffffffffffffffffff1660c08173ffffffffffffffffffffffffffffffffffffffff16815250508360e081815250508267ffffffffffffffff166101008167ffffffffffffffff16815250508163ffffffff166101208163ffffffff16815250504260018190555080610140818152505050505050505062000302565b600080fd5b600073ffffffffffffffffffffffffffffffffffffffff82169050919050565b6000620001328262000105565b9050919050565b620001448162000125565b81146200015057600080fd5b50565b600081519050620001648162000139565b92915050565b6000819050919050565b6200017f816200016a565b81146200018b57600080fd5b50565b6000815190506200019f8162000174565b92915050565b6000819050919050565b620001ba81620001a5565b8114620001c657600080fd5b50565b600081519050620001da81620001af565b92915050565b600067ffffffffffffffff82169050919050565b620001ff81620001e0565b81146200020b57600080fd5b50565b6000815190506200021f81620001f4565b92915050565b600063ffffffff82169050919050565b620002408162000225565b81146200024c57600080fd5b50565b600081519050620002608162000235565b92915050565b60008060008060008060c0878903121562000286576200028562000100565b5b60006200029689828a0162000153565b9650506020620002a989828a016200018e565b9550506040620002bc89828a01620001c9565b9450506060620002cf89828a016200020e565b9350506080620002e289828a016200024f565b92505060a0620002f589828a016200018e565b9150509295509295509295565b60805160a05160c05160e05161010051610120516101405161144c6200036b6000396000610739015260006105db015260006105b8015260006105970152600061055b0152600081816102b4015261039a0152600081816102da015261032e015261144c6000f3fe6080604052600436106100a75760003560e01c806355c9e9261161006457806355c9e9261461019b5780636e04ff0d146101c65780637e74ae961461020457806389d686be1461022f578063c361ce831461025a578063da235b2214610285576100a7565b806309bc33a7146100ac5780631fe543e3146100d75780632cfcc539146101005780634585e33b1461010a578063460e20491461013357806353a2c19a14610170575b600080fd5b3480156100b857600080fd5b506100c16102b0565b6040516100ce9190610b59565b60405180910390f35b3480156100e357600080fd5b506100fe60048036038101906100f99190610d0d565b6102d8565b005b610108610398565b005b34801561011657600080fd5b50610131600480360381019061012c9190610dc4565b6104a3565b005b34801561013f57600080fd5b5061015a60048036038101906101559190610e11565b610694565b6040516101679190610e7f565b60405180910390f35b34801561017c57600080fd5b506101856106db565b6040516101929190610b59565b60405180910390f35b3480156101a757600080fd5b506101b06106ea565b6040516101bd9190610b59565b60405180910390f35b3480156101d257600080fd5b506101ed60048036038101906101e89190610f4f565b6106f6565b6040516101fb929190611032565b60405180910390f35b34801561021057600080fd5b506102196107a3565b60405161022691906110d9565b60405180910390f35b34801561023b57600080fd5b506102446107ba565b6040516102519190610e7f565b60405180910390f35b34801561026657600080fd5b5061026f6107e4565b60405161027c9190610b59565b60405180910390f35b34801561029157600080fd5b5061029a6107f1565b6040516102a79190610b59565b60405180910390f35b60007f0000000000000000000000000000000000000000000000000000000000000000905090565b7f000000000000000000000000000000000000000000000000000000000000000073ffffffffffffffffffffffffffffffffffffffff163373ffffffffffffffffffffffffffffffffffffffff161461038a57337f00000000000000000000000000000000000000000000000000000000000000006040517f1cf993f40000000000000000000000000000000000000000000000000000000081526004016103819291906110f4565b60405180910390fd5b61039482826107fb565b5050565b7f00000000000000000000000000000000000000000000000000000000000000003410156103fb576040517f08c379a00000000000000000000000000000000000000000000000000000000081526004016103f29061117a565b60405180910390fd5b6000339080600181540180825580915050600190039060005260206000200160009091909190916101000a81548173ffffffffffffffffffffffffffffffffffffffff021916908373ffffffffffffffffffffffffffffffffffffffff1602179055503373ffffffffffffffffffffffffffffffffffffffff167f0805e1d667bddb8a95f0f09880cf94f403fb596ce79928d9f29b74203ba284d460405160405180910390a2565b60006104bd604051806020016040528060008152506106f6565b5090508061052c5747600080549050600260009054906101000a900460ff1660018111156104ee576104ed611062565b5b6040517f051f10950000000000000000000000000000000000000000000000000000000081526004016105239392919061119a565b60405180910390fd5b6001600260006101000a81548160ff0219169083600181111561055257610551611062565b5b021790555060007f000000000000000000000000000000000000000000000000000000000000000073ffffffffffffffffffffffffffffffffffffffff16635d3b1d307f00000000000000000000000000000000000000000000000000000000000000007f000000000000000000000000000000000000000000000000000000000000000060037f000000000000000000000000000000000000000000000000000000000000000060016040518663ffffffff1660e01b815260040161061c959493929190611249565b6020604051808303816000875af115801561063b573d6000803e3d6000fd5b505050506040513d601f19601f8201168201806040525081019061065f91906112b1565b9050807fcd6e45c8998311cab7e9d4385596cac867e20a0587194b954fa3a731c93ce78b60405160405180910390a250505050565b60008082815481106106a9576106a86112de565b5b9060005260206000200160009054906101000a900473ffffffffffffffffffffffffffffffffffffffff169050919050565b6000600163ffffffff16905090565b60008080549050905090565b600060606000600260009054906101000a900460ff16600181111561071e5761071d611062565b5b6000600181111561073257610731611062565b5b14905060007f000000000000000000000000000000000000000000000000000000000000000060015442610766919061133c565b119050600080600080549050119050600080471190508380156107865750825b801561078f5750815b80156107985750805b955050505050915091565b6000600260009054906101000a900460ff16905090565b6000600260019054906101000a900473ffffffffffffffffffffffffffffffffffffffff16905090565b6000600361ffff16905090565b6000600154905090565b6000808054905082600081518110610816576108156112de565b5b6020026020010151610828919061139f565b9050600080828154811061083f5761083e6112de565b5b9060005260206000200160009054906101000a900473ffffffffffffffffffffffffffffffffffffffff16905080600260016101000a81548173ffffffffffffffffffffffffffffffffffffffff021916908373ffffffffffffffffffffffffffffffffffffffff1602179055506000600260006101000a81548160ff021916908360018111156108d3576108d2611062565b5b021790555042600181905550600067ffffffffffffffff8111156108fa576108f9610bca565b5b6040519080825280602002602001820160405280156109285781602001602082028036833780820191505090505b506000908051906020019061093e929190610a99565b5060008173ffffffffffffffffffffffffffffffffffffffff164760405161096590611401565b60006040518083038185875af1925050503d80600081146109a2576040519150601f19603f3d011682016040523d82523d6000602084013e6109a7565b606091505b50509050806109e2576040517fba31c4f300000000000000000000000000000000000000000000000000000000815260040160405180910390fd5b600060018111156109f6576109f5611062565b5b600260009054906101000a900460ff166001811115610a1857610a17611062565b5b14610a4f576040517f55324a9200000000000000000000000000000000000000000000000000000000815260040160405180910390fd5b8173ffffffffffffffffffffffffffffffffffffffff167f5b690ec4a06fe979403046eaeea5b3ce38524683c3001f662c8b5a829632f7df60405160405180910390a25050505050565b828054828255906000526020600020908101928215610b12579160200282015b82811115610b115782518260006101000a81548173ffffffffffffffffffffffffffffffffffffffff021916908373ffffffffffffffffffffffffffffffffffffffff16021790555091602001919060010190610ab9565b5b509050610b1f9190610b23565b5090565b5b80821115610b3c576000816000905550600101610b24565b5090565b6000819050919050565b610b5381610b40565b82525050565b6000602082019050610b6e6000830184610b4a565b92915050565b6000604051905090565b600080fd5b600080fd5b610b9181610b40565b8114610b9c57600080fd5b50565b600081359050610bae81610b88565b92915050565b600080fd5b6000601f19601f8301169050919050565b7f4e487b7100000000000000000000000000000000000000000000000000000000600052604160045260246000fd5b610c0282610bb9565b810181811067ffffffffffffffff82111715610c2157610c20610bca565b5b80604052505050565b6000610c34610b74565b9050610c408282610bf9565b919050565b600067ffffffffffffffff821115610c6057610c5f610bca565b5b602082029050602081019050919050565b600080fd5b6000610c89610c8484610c45565b610c2a565b90508083825260208201905060208402830185811115610cac57610cab610c71565b5b835b81811015610cd55780610cc18882610b9f565b845260208401935050602081019050610cae565b5050509392505050565b600082601f830112610cf457610cf3610bb4565b5b8135610d04848260208601610c76565b91505092915050565b60008060408385031215610d2457610d23610b7e565b5b6000610d3285828601610b9f565b925050602083013567ffffffffffffffff811115610d5357610d52610b83565b5b610d5f85828601610cdf565b9150509250929050565b600080fd5b60008083601f840112610d8457610d83610bb4565b5b8235905067ffffffffffffffff811115610da157610da0610d69565b5b602083019150836001820283011115610dbd57610dbc610c71565b5b9250929050565b60008060208385031215610ddb57610dda610b7e565b5b600083013567ffffffffffffffff811115610df957610df8610b83565b5b610e0585828601610d6e565b92509250509250929050565b600060208284031215610e2757610e26610b7e565b5b6000610e3584828501610b9f565b91505092915050565b600073ffffffffffffffffffffffffffffffffffffffff82169050919050565b6000610e6982610e3e565b9050919050565b610e7981610e5e565b82525050565b6000602082019050610e946000830184610e70565b92915050565b600080fd5b600067ffffffffffffffff821115610eba57610eb9610bca565b5b610ec382610bb9565b9050602081019050919050565b82818337600083830152505050565b6000610ef2610eed84610e9f565b610c2a565b905082815260208101848484011115610f0e57610f0d610e9a565b5b610f19848285610ed0565b509392505050565b600082601f830112610f3657610f35610bb4565b5b8135610f46848260208601610edf565b91505092915050565b600060208284031215610f6557610f64610b7e565b5b600082013567ffffffffffffffff811115610f8357610f82610b83565b5b610f8f84828501610f21565b91505092915050565b60008115159050919050565b610fad81610f98565b82525050565b600081519050919050565b600082825260208201905092915050565b60005b83811015610fed578082015181840152602081019050610fd2565b60008484015250505050565b600061100482610fb3565b61100e8185610fbe565b935061101e818560208601610fcf565b61102781610bb9565b840191505092915050565b60006040820190506110476000830185610fa4565b81810360208301526110598184610ff9565b90509392505050565b7f4e487b7100000000000000000000000000000000000000000000000000000000600052602160045260246000fd5b600281106110a2576110a1611062565b5b50565b60008190506110b382611091565b919050565b60006110c3826110a5565b9050919050565b6110d3816110b8565b82525050565b60006020820190506110ee60008301846110ca565b92915050565b60006040820190506111096000830185610e70565b6111166020830184610e70565b9392505050565b600082825260208201905092915050565b7f6e6f7420656e6f7567682065746865722073656e740000000000000000000000600082015250565b600061116460158361111d565b915061116f8261112e565b602082019050919050565b6000602082019050818103600083015261119381611157565b9050919050565b60006060820190506111af6000830186610b4a565b6111bc6020830185610b4a565b6111c96040830184610b4a565b949350505050565b6000819050919050565b6111e4816111d1565b82525050565b600067ffffffffffffffff82169050919050565b611207816111ea565b82525050565b600061ffff82169050919050565b6112248161120d565b82525050565b600063ffffffff82169050919050565b6112438161122a565b82525050565b600060a08201905061125e60008301886111db565b61126b60208301876111fe565b611278604083018661121b565b611285606083018561123a565b611292608083018461123a565b9695505050505050565b6000815190506112ab81610b88565b92915050565b6000602082840312156112c7576112c6610b7e565b5b60006112d58482850161129c565b91505092915050565b7f4e487b7100000000000000000000000000000000000000000000000000000000600052603260045260246000fd5b7f4e487b7100000000000000000000000000000000000000000000000000000000600052601160045260246000fd5b600061134782610b40565b915061135283610b40565b925082820390508181111561136a5761136961130d565b5b92915050565b7f4e487b7100000000000000000000000000000000000000000000000000000000600052601260045260246000fd5b60006113aa82610b40565b91506113b583610b40565b9250826113c5576113c4611370565b5b828206905092915050565b600081905092915050565b50565b60006113eb6000836113d0565b91506113f6826113db565b600082019050919050565b600061140c826113de565b915081905091905056fea2646970667358221220dd62eb178dd4ab905d31dc4767307ef490b91a447d1ef5d3444bd03162b1fb2264736f6c63430008130033",
  "linkReferences": {},
  "deployedLinkReferences": {}
}