{
  "_format": "hh-sol-artifact-1",
  "contractName": "Raffle",
  "sourceName": "contracts/Raffle.sol",
  "abi": [
    {
      "inputs": [
        {
          "internalType": "address",
          "name": "vrfCoordinatorV2",
          "type": "address"
        },
        {
          "internalType": "uint256",
          "name": "entranceFee",
          "type": "uint256"
        },
        {
          "internalType": "bytes32",
          "name": "gasLane",
          "type": "bytes32"
        },
        {
          "internalType": "uint64",
          "name": "subscriptionId",
          "type": "uint64"
        },
        {
          "internalType": "uint32",
          "name": "callbackGasLimit",
          "type": "uint32"
        },
        {
          "internalType": "uint256",
          "name": "interval",
          "type": "uint256"
        }
      ],
      "stateMutability": "nonpayable",
      "type": "constructor"
    },
    {
      "inputs": [
        {
          "internalType": "address",
          "name": "have",
          "type": "address"
        },
        {
          "internalType": "address",
          "name": "want",
          "type": "address"
        }
      ],
      "name": "OnlyCoordinatorCanFulfill",
      "type": "error"
    },
    {
      "inputs": [],
      "name": "OnlySimulatedBackend",
      "type": "error"
    },
    {
      "inputs": [],
      "name": "Raffle_BALANCETRANSFERFAILED",
      "type": "error"
    },
    {
      "inputs": [
        {
          "internalType": "uint256",
          "name": "currentBalance",
          "type": "uint256"
        },
        {
          "internalType": "uint256",
          "name": "players",
          "type": "uint256"
        },
        {
          "internalType": "uint256",
          "name": "raffleState",
          "type": "uint256"
        }
      ],
      "name": "Raffle_UPKEEPNOTNEEDED",
      "type": "error"
    },
    {
      "inputs": [],
      "name": "Raffle__NOTENOUGHETH",
      "type": "error"
    },
    {
      "inputs": [],
      "name": "Raffle__RAFFLENOTOPEN",
      "type": "error"
    },
    {
      "anonymous": false,
      "inputs": [
        {
          "indexed": true,
          "internalType": "address",
          "name": "player",
          "type": "address"
        }
      ],
      "name": "raffleEnter",
      "type": "event"
    },
    {
      "anonymous": false,
      "inputs": [
        {
          "indexed": true,
          "internalType": "address",
          "name": "theWinner",
          "type": "address"
        }
      ],
      "name": "randomWinnerPicked",
      "type": "event"
    },
    {
      "anonymous": false,
      "inputs": [
        {
          "indexed": true,
          "internalType": "uint256",
          "name": "requestId",
          "type": "uint256"
        }
      ],
      "name": "requestedRaffleWinner",
      "type": "event"
    },
    {
      "inputs": [
        {
          "internalType": "bytes",
          "name": "",
          "type": "bytes"
        }
      ],
      "name": "checkUpkeep",
      "outputs": [
        {
          "internalType": "bool",
          "name": "upkeepNeeded",
          "type": "bool"
        },
        {
          "internalType": "bytes",
          "name": "",
          "type": "bytes"
        }
      ],
      "stateMutability": "view",
      "type": "function"
    },
    {
      "inputs": [],
      "name": "enterRaffle",
      "outputs": [],
      "stateMutability": "payable",
      "type": "function"
    },
    {
      "inputs": [],
      "name": "getEntranceFee",
      "outputs": [
        {
          "internalType": "uint256",
          "name": "",
          "type": "uint256"
        }
      ],
      "stateMutability": "view",
      "type": "function"
    },
    {
      "inputs": [],
      "name": "getInterval",
      "outputs": [
        {
          "internalType": "uint256",
          "name": "",
          "type": "uint256"
        }
      ],
      "stateMutability": "view",
      "type": "function"
    },
    {
      "inputs": [],
      "name": "getNumWords",
      "outputs": [
        {
          "internalType": "uint32",
          "name": "",
          "type": "uint32"
        }
      ],
      "stateMutability": "pure",
      "type": "function"
    },
    {
      "inputs": [],
      "name": "getNumberOfPlayers",
      "outputs": [
        {
          "internalType": "uint256",
          "name": "",
          "type": "uint256"
        }
      ],
      "stateMutability": "view",
      "type": "function"
    },
    {
      "inputs": [
        {
          "internalType": "uint256",
          "name": "index",
          "type": "uint256"
        }
      ],
      "name": "getPlayers",
      "outputs": [
        {
          "internalType": "address",
          "name": "",
          "type": "address"
        }
      ],
      "stateMutability": "view",
      "type": "function"
    },
    {
      "inputs": [],
      "name": "getRaffleState",
      "outputs": [
        {
          "internalType": "enum Raffle.RaffleState",
          "name": "",
          "type": "uint8"
        }
      ],
      "stateMutability": "view",
      "type": "function"
    },
    {
      "inputs": [],
      "name": "getRecentWinner",
      "outputs": [
        {
          "internalType": "address",
          "name": "",
          "type": "address"
        }
      ],
      "stateMutability": "view",
      "type": "function"
    },
    {
      "inputs": [],
      "name": "getRequestConfirmations",
      "outputs": [
        {
          "internalType": "uint256",
          "name": "",
          "type": "uint256"
        }
      ],
      "stateMutability": "pure",
      "type": "function"
    },
    {
      "inputs": [],
      "name": "i_vrfCoordinator",
      "outputs": [
        {
          "internalType": "contract VRFCoordinatorV2Interface",
          "name": "",
          "type": "address"
        }
      ],
      "stateMutability": "view",
      "type": "function"
    },
    {
      "inputs": [
        {
          "internalType": "bytes",
          "name": "",
          "type": "bytes"
        }
      ],
      "name": "performUpkeep",
      "outputs": [],
      "stateMutability": "nonpayable",
      "type": "function"
    },
    {
      "inputs": [
        {
          "internalType": "uint256",
          "name": "requestId",
          "type": "uint256"
        },
        {
          "internalType": "uint256[]",
          "name": "randomWords",
          "type": "uint256[]"
        }
      ],
      "name": "rawFulfillRandomWords",
      "outputs": [],
      "stateMutability": "nonpayable",
      "type": "function"
    },
    {
      "inputs": [
        {
          "internalType": "uint256",
          "name": "",
          "type": "uint256"
        }
      ],
      "name": "s_players",
      "outputs": [
        {
          "internalType": "address payable",
          "name": "",
          "type": "address"
        }
      ],
      "stateMutability": "view",
      "type": "function"
    }
  ],
  "bytecode": "0x6101606040523480156200001257600080fd5b50604051620019de380380620019de8339818101604052810190620000389190620001ad565b858073ffffffffffffffffffffffffffffffffffffffff1660808173ffffffffffffffffffffffffffffffffffffffff1660601b81525050508460a081815250508573ffffffffffffffffffffffffffffffffffffffff1660c08173ffffffffffffffffffffffffffffffffffffffff1660601b815250508360e081815250508267ffffffffffffffff166101008167ffffffffffffffff1660c01b815250508163ffffffff166101208163ffffffff1660e01b815250506000600260006101000a81548160ff02191690836001811115620001195762000118620002b5565b5b0217905550426001819055508061014081815250505050505050506200036b565b6000815190506200014b81620002e9565b92915050565b600081519050620001628162000303565b92915050565b60008151905062000179816200031d565b92915050565b600081519050620001908162000337565b92915050565b600081519050620001a78162000351565b92915050565b60008060008060008060c08789031215620001cd57620001cc620002e4565b5b6000620001dd89828a016200013a565b9650506020620001f089828a0162000168565b95505060406200020389828a0162000151565b94505060606200021689828a0162000196565b93505060806200022989828a016200017f565b92505060a06200023c89828a0162000168565b9150509295509295509295565b6000620002568262000267565b9050919050565b6000819050919050565b600073ffffffffffffffffffffffffffffffffffffffff82169050919050565b6000819050919050565b600063ffffffff82169050919050565b600067ffffffffffffffff82169050919050565b7f4e487b7100000000000000000000000000000000000000000000000000000000600052602160045260246000fd5b600080fd5b620002f48162000249565b81146200030057600080fd5b50565b6200030e816200025d565b81146200031a57600080fd5b50565b620003288162000287565b81146200033457600080fd5b50565b620003428162000291565b81146200034e57600080fd5b50565b6200035c81620002a1565b81146200036857600080fd5b50565b60805160601c60a05160c05160601c60e0516101005160c01c6101205160e01c610140516115f0620003ee60003960008181610899015261092f015260006106f4015260006106d1015260006106b00152600081816106740152610994015260008181610352015261044f01526000818161038f01526103e301526115f06000f3fe6080604052600436106100dd5760003560e01c806353a2c19a1161007f57806391ad27b41161005957806391ad27b414610290578063ae771f6b146102bb578063aebc4550146102f8578063fd6673f514610323576100dd565b806353a2c19a146101fc5780635f1b0fd8146102275780636e04ff0d14610252576100dd565b80632cfcc539116100bb5780632cfcc539146101615780634585e33b1461016b578063460e204914610194578063473f1ddc146101d1576100dd565b806309bc33a7146100e2578063115cbaf51461010d5780631fe543e314610138575b600080fd5b3480156100ee57600080fd5b506100f761034e565b6040516101049190611193565b60405180910390f35b34801561011957600080fd5b50610122610376565b60405161012f9190611178565b60405180910390f35b34801561014457600080fd5b5061015f600480360381019061015a9190610f18565b61038d565b005b61016961044d565b005b34801561017757600080fd5b50610192600480360381019061018d9190610e28565b6105bc565b005b3480156101a057600080fd5b506101bb60048036038101906101b69190610ebe565b6107bc565b6040516101c8919061107b565b60405180910390f35b3480156101dd57600080fd5b506101e6610803565b6040516101f3919061107b565b60405180910390f35b34801561020857600080fd5b5061021161082d565b60405161021e91906111e5565b60405180910390f35b34801561023357600080fd5b5061023c610836565b6040516102499190611193565b60405180910390f35b34801561025e57600080fd5b5061027960048036038101906102749190610e75565b610843565b6040516102879291906110da565b60405180910390f35b34801561029c57600080fd5b506102a561092b565b6040516102b29190611193565b60405180910390f35b3480156102c757600080fd5b506102e260048036038101906102dd9190610ebe565b610953565b6040516102ef9190611096565b60405180910390f35b34801561030457600080fd5b5061030d610992565b60405161031a919061115d565b60405180910390f35b34801561032f57600080fd5b506103386109b6565b6040516103459190611193565b60405180910390f35b60007f0000000000000000000000000000000000000000000000000000000000000000905090565b6000600260009054906101000a900460ff16905090565b7f000000000000000000000000000000000000000000000000000000000000000073ffffffffffffffffffffffffffffffffffffffff163373ffffffffffffffffffffffffffffffffffffffff161461043f57337f00000000000000000000000000000000000000000000000000000000000000006040517f1cf993f40000000000000000000000000000000000000000000000000000000081526004016104369291906110b1565b60405180910390fd5b61044982826109c2565b5050565b7f00000000000000000000000000000000000000000000000000000000000000003410156104a7576040517f53909cba00000000000000000000000000000000000000000000000000000000815260040160405180910390fd5b600060018111156104bb576104ba6114d0565b5b600260009054906101000a900460ff1660018111156104dd576104dc6114d0565b5b14610514576040517f9a41a9f900000000000000000000000000000000000000000000000000000000815260040160405180910390fd5b6000339080600181540180825580915050600190039060005260206000200160009091909190916101000a81548173ffffffffffffffffffffffffffffffffffffffff021916908373ffffffffffffffffffffffffffffffffffffffff1602179055503373ffffffffffffffffffffffffffffffffffffffff167f742d070bf0f3edace132a9da8ba725e8cf99c478869cee7f673ed6085e2f8e6460405160405180910390a2565b60006105d660405180602001604052806000815250610843565b509050806106455747600080549050600260009054906101000a900460ff166001811115610607576106066114d0565b5b6040517f6acd5de900000000000000000000000000000000000000000000000000000000815260040161063c939291906111ae565b60405180910390fd5b6001600260006101000a81548160ff0219169083600181111561066b5761066a6114d0565b5b021790555060007f000000000000000000000000000000000000000000000000000000000000000073ffffffffffffffffffffffffffffffffffffffff16635d3b1d307f00000000000000000000000000000000000000000000000000000000000000007f000000000000000000000000000000000000000000000000000000000000000060037f000000000000000000000000000000000000000000000000000000000000000060016040518663ffffffff1660e01b815260040161073595949392919061110a565b602060405180830381600087803b15801561074f57600080fd5b505af1158015610763573d6000803e3d6000fd5b505050506040513d601f19601f820116820180604052508101906107879190610eeb565b9050807fe0abfa81226f1e2ce09ba287cbb4c241e89b2b891a389274bb7d9c46e344daf060405160405180910390a250505050565b60008082815481106107d1576107d06114ff565b5b9060005260206000200160009054906101000a900473ffffffffffffffffffffffffffffffffffffffff169050919050565b6000600260019054906101000a900473ffffffffffffffffffffffffffffffffffffffff16905090565b60006001905090565b6000600361ffff16905090565b600060606000600260009054906101000a900460ff16600181111561086b5761086a6114d0565b5b6000600181111561087f5761087e6114d0565b5b1490506000806000805490501190506000804711905060007f0000000000000000000000000000000000000000000000000000000000000000600154426108c691906112a9565b1190508380156108d35750825b80156108dc5750815b80156108e55750805b9550856040518060400160405280600381526020017f30783000000000000000000000000000000000000000000000000000000000008152509550955050505050915091565b60007f0000000000000000000000000000000000000000000000000000000000000000905090565b6000818154811061096357600080fd5b906000526020600020016000915054906101000a900473ffffffffffffffffffffffffffffffffffffffff1681565b7f000000000000000000000000000000000000000000000000000000000000000081565b60008080549050905090565b60008080549050826000815181106109dd576109dc6114ff565b5b60200260200101516109ef9190611441565b90506000808281548110610a0657610a056114ff565b5b9060005260206000200160009054906101000a900473ffffffffffffffffffffffffffffffffffffffff16905080600260016101000a81548173ffffffffffffffffffffffffffffffffffffffff021916908373ffffffffffffffffffffffffffffffffffffffff160217905550600067ffffffffffffffff811115610a8f57610a8e61152e565b5b604051908082528060200260200182016040528015610abd5781602001602082028036833780820191505090505b5060009080519060200190610ad3929190610bf3565b506000600260006101000a81548160ff02191690836001811115610afa57610af96114d0565b5b02179055504260018190555060008173ffffffffffffffffffffffffffffffffffffffff1647604051610b2c90611066565b60006040518083038185875af1925050503d8060008114610b69576040519150601f19603f3d011682016040523d82523d6000602084013e610b6e565b606091505b5050905080610ba9576040517f835b702e00000000000000000000000000000000000000000000000000000000815260040160405180910390fd5b8173ffffffffffffffffffffffffffffffffffffffff167fb858f78c6ef3de6c040cd394535543e98132bc3c33d1e98398f4f878915b6ba960405160405180910390a25050505050565b828054828255906000526020600020908101928215610c6c579160200282015b82811115610c6b5782518260006101000a81548173ffffffffffffffffffffffffffffffffffffffff021916908373ffffffffffffffffffffffffffffffffffffffff16021790555091602001919060010190610c13565b5b509050610c799190610c7d565b5090565b5b80821115610c96576000816000905550600101610c7e565b5090565b6000610cad610ca884611225565b611200565b90508083825260208201905082856020860282011115610cd057610ccf611567565b5b60005b85811015610d005781610ce68882610dfe565b845260208401935060208301925050600181019050610cd3565b5050509392505050565b6000610d1d610d1884611251565b611200565b905082815260208101848484011115610d3957610d3861156c565b5b610d448482856113ce565b509392505050565b600082601f830112610d6157610d60611562565b5b8135610d71848260208601610c9a565b91505092915050565b60008083601f840112610d9057610d8f611562565b5b8235905067ffffffffffffffff811115610dad57610dac61155d565b5b602083019150836001820283011115610dc957610dc8611567565b5b9250929050565b600082601f830112610de557610de4611562565b5b8135610df5848260208601610d0a565b91505092915050565b600081359050610e0d816115a3565b92915050565b600081519050610e22816115a3565b92915050565b60008060208385031215610e3f57610e3e611576565b5b600083013567ffffffffffffffff811115610e5d57610e5c611571565b5b610e6985828601610d7a565b92509250509250929050565b600060208284031215610e8b57610e8a611576565b5b600082013567ffffffffffffffff811115610ea957610ea8611571565b5b610eb584828501610dd0565b91505092915050565b600060208284031215610ed457610ed3611576565b5b6000610ee284828501610dfe565b91505092915050565b600060208284031215610f0157610f00611576565b5b6000610f0f84828501610e13565b91505092915050565b60008060408385031215610f2f57610f2e611576565b5b6000610f3d85828601610dfe565b925050602083013567ffffffffffffffff811115610f5e57610f5d611571565b5b610f6a85828601610d4c565b9150509250929050565b610f7d816112ef565b82525050565b610f8c816112dd565b82525050565b610f9b81611301565b82525050565b610faa8161130d565b82525050565b6000610fbb82611282565b610fc5818561128d565b9350610fd58185602086016113dd565b610fde8161157b565b840191505092915050565b610ff281611386565b82525050565b61100181611398565b82525050565b600061101460008361129e565b915061101f8261158c565b600082019050919050565b6110338161132a565b82525050565b61104281611358565b82525050565b61105181611362565b82525050565b61106081611372565b82525050565b600061107182611007565b9150819050919050565b60006020820190506110906000830184610f83565b92915050565b60006020820190506110ab6000830184610f74565b92915050565b60006040820190506110c66000830185610f83565b6110d36020830184610f83565b9392505050565b60006040820190506110ef6000830185610f92565b81810360208301526111018184610fb0565b90509392505050565b600060a08201905061111f6000830188610fa1565b61112c6020830187611057565b611139604083018661102a565b6111466060830185611048565b6111536080830184611048565b9695505050505050565b60006020820190506111726000830184610fe9565b92915050565b600060208201905061118d6000830184610ff8565b92915050565b60006020820190506111a86000830184611039565b92915050565b60006060820190506111c36000830186611039565b6111d06020830185611039565b6111dd6040830184611039565b949350505050565b60006020820190506111fa6000830184611048565b92915050565b600061120a61121b565b90506112168282611410565b919050565b6000604051905090565b600067ffffffffffffffff8211156112405761123f61152e565b5b602082029050602081019050919050565b600067ffffffffffffffff82111561126c5761126b61152e565b5b6112758261157b565b9050602081019050919050565b600081519050919050565b600082825260208201905092915050565b600081905092915050565b60006112b482611358565b91506112bf83611358565b9250828210156112d2576112d1611472565b5b828203905092915050565b60006112e882611338565b9050919050565b60006112fa82611338565b9050919050565b60008115159050919050565b6000819050919050565b60008190506113258261158f565b919050565b600061ffff82169050919050565b600073ffffffffffffffffffffffffffffffffffffffff82169050919050565b6000819050919050565b600063ffffffff82169050919050565b600067ffffffffffffffff82169050919050565b6000611391826113aa565b9050919050565b60006113a382611317565b9050919050565b60006113b5826113bc565b9050919050565b60006113c782611338565b9050919050565b82818337600083830152505050565b60005b838110156113fb5780820151818401526020810190506113e0565b8381111561140a576000848401525b50505050565b6114198261157b565b810181811067ffffffffffffffff821117156114385761143761152e565b5b80604052505050565b600061144c82611358565b915061145783611358565b925082611467576114666114a1565b5b828206905092915050565b7f4e487b7100000000000000000000000000000000000000000000000000000000600052601160045260246000fd5b7f4e487b7100000000000000000000000000000000000000000000000000000000600052601260045260246000fd5b7f4e487b7100000000000000000000000000000000000000000000000000000000600052602160045260246000fd5b7f4e487b7100000000000000000000000000000000000000000000000000000000600052603260045260246000fd5b7f4e487b7100000000000000000000000000000000000000000000000000000000600052604160045260246000fd5b600080fd5b600080fd5b600080fd5b600080fd5b600080fd5b600080fd5b6000601f19601f8301169050919050565b50565b600281106115a05761159f6114d0565b5b50565b6115ac81611358565b81146115b757600080fd5b5056fea26469706673582212201b57c200744eb9402e2e8d0617e4194d8d95036dd92f984ae3a60e8ae58e90bc64736f6c63430008070033",
  "linkReferences": {},
  "deployedLinkReferences": {}
}