{
  "address": "0x82B4050d360259812dbBe0c0E15861e57E5e468A",
  "abi": [
    {
      "inputs": [
        {
          "internalType": "address",
          "name": "vrfCoordinatorV2",
          "type": "address"
        },
        {
          "internalType": "uint256",
          "name": "entranceFee",
          "type": "uint256"
        },
        {
          "internalType": "bytes32",
          "name": "gasLane",
          "type": "bytes32"
        },
        {
          "internalType": "uint64",
          "name": "subscriptionId",
          "type": "uint64"
        },
        {
          "internalType": "uint32",
          "name": "callbackGasLimit",
          "type": "uint32"
        },
        {
          "internalType": "uint256",
          "name": "interval",
          "type": "uint256"
        }
      ],
      "stateMutability": "nonpayable",
      "type": "constructor"
    },
    {
      "inputs": [
        {
          "internalType": "address",
          "name": "have",
          "type": "address"
        },
        {
          "internalType": "address",
          "name": "want",
          "type": "address"
        }
      ],
      "name": "OnlyCoordinatorCanFulfill",
      "type": "error"
    },
    {
      "inputs": [],
      "name": "OnlySimulatedBackend",
      "type": "error"
    },
    {
      "inputs": [],
      "name": "Raffle_BALANCETRANSFERFAILED",
      "type": "error"
    },
    {
      "inputs": [
        {
          "internalType": "uint256",
          "name": "currentBalance",
          "type": "uint256"
        },
        {
          "internalType": "uint256",
          "name": "players",
          "type": "uint256"
        },
        {
          "internalType": "uint256",
          "name": "raffleState",
          "type": "uint256"
        }
      ],
      "name": "Raffle_UPKEEPNOTNEEDED",
      "type": "error"
    },
    {
      "inputs": [],
      "name": "Raffle__NOTENOUGHETH",
      "type": "error"
    },
    {
      "inputs": [],
      "name": "Raffle__RAFFLENOTOPEN",
      "type": "error"
    },
    {
      "anonymous": false,
      "inputs": [
        {
          "indexed": true,
          "internalType": "address",
          "name": "player",
          "type": "address"
        }
      ],
      "name": "raffleEnter",
      "type": "event"
    },
    {
      "anonymous": false,
      "inputs": [
        {
          "indexed": true,
          "internalType": "address",
          "name": "theWinner",
          "type": "address"
        }
      ],
      "name": "randomWinnerPicked",
      "type": "event"
    },
    {
      "anonymous": false,
      "inputs": [
        {
          "indexed": true,
          "internalType": "uint256",
          "name": "requestId",
          "type": "uint256"
        }
      ],
      "name": "requestedRaffleWinner",
      "type": "event"
    },
    {
      "inputs": [
        {
          "internalType": "bytes",
          "name": "",
          "type": "bytes"
        }
      ],
      "name": "checkUpkeep",
      "outputs": [
        {
          "internalType": "bool",
          "name": "upkeepNeeded",
          "type": "bool"
        },
        {
          "internalType": "bytes",
          "name": "",
          "type": "bytes"
        }
      ],
      "stateMutability": "view",
      "type": "function"
    },
    {
      "inputs": [],
      "name": "enterRaffle",
      "outputs": [],
      "stateMutability": "payable",
      "type": "function"
    },
    {
      "inputs": [],
      "name": "getEntranceFee",
      "outputs": [
        {
          "internalType": "uint256",
          "name": "",
          "type": "uint256"
        }
      ],
      "stateMutability": "view",
      "type": "function"
    },
    {
      "inputs": [],
      "name": "getInterval",
      "outputs": [
        {
          "internalType": "uint256",
          "name": "",
          "type": "uint256"
        }
      ],
      "stateMutability": "view",
      "type": "function"
    },
    {
      "inputs": [],
      "name": "getLatestTimeStamp",
      "outputs": [
        {
          "internalType": "uint256",
          "name": "",
          "type": "uint256"
        }
      ],
      "stateMutability": "view",
      "type": "function"
    },
    {
      "inputs": [],
      "name": "getNumWords",
      "outputs": [
        {
          "internalType": "uint32",
          "name": "",
          "type": "uint32"
        }
      ],
      "stateMutability": "pure",
      "type": "function"
    },
    {
      "inputs": [],
      "name": "getNumberOfPlayers",
      "outputs": [
        {
          "internalType": "uint256",
          "name": "",
          "type": "uint256"
        }
      ],
      "stateMutability": "view",
      "type": "function"
    },
    {
      "inputs": [
        {
          "internalType": "uint256",
          "name": "index",
          "type": "uint256"
        }
      ],
      "name": "getPlayers",
      "outputs": [
        {
          "internalType": "address",
          "name": "",
          "type": "address"
        }
      ],
      "stateMutability": "view",
      "type": "function"
    },
    {
      "inputs": [],
      "name": "getRaffleState",
      "outputs": [
        {
          "internalType": "enum Raffle.RaffleState",
          "name": "",
          "type": "uint8"
        }
      ],
      "stateMutability": "view",
      "type": "function"
    },
    {
      "inputs": [],
      "name": "getRecentWinner",
      "outputs": [
        {
          "internalType": "address",
          "name": "",
          "type": "address"
        }
      ],
      "stateMutability": "view",
      "type": "function"
    },
    {
      "inputs": [],
      "name": "getRequestConfirmations",
      "outputs": [
        {
          "internalType": "uint256",
          "name": "",
          "type": "uint256"
        }
      ],
      "stateMutability": "pure",
      "type": "function"
    },
    {
      "inputs": [],
      "name": "i_vrfCoordinator",
      "outputs": [
        {
          "internalType": "contract VRFCoordinatorV2Interface",
          "name": "",
          "type": "address"
        }
      ],
      "stateMutability": "view",
      "type": "function"
    },
    {
      "inputs": [
        {
          "internalType": "bytes",
          "name": "",
          "type": "bytes"
        }
      ],
      "name": "performUpkeep",
      "outputs": [],
      "stateMutability": "nonpayable",
      "type": "function"
    },
    {
      "inputs": [
        {
          "internalType": "uint256",
          "name": "requestId",
          "type": "uint256"
        },
        {
          "internalType": "uint256[]",
          "name": "randomWords",
          "type": "uint256[]"
        }
      ],
      "name": "rawFulfillRandomWords",
      "outputs": [],
      "stateMutability": "nonpayable",
      "type": "function"
    },
    {
      "inputs": [
        {
          "internalType": "uint256",
          "name": "",
          "type": "uint256"
        }
      ],
      "name": "s_players",
      "outputs": [
        {
          "internalType": "address payable",
          "name": "",
          "type": "address"
        }
      ],
      "stateMutability": "view",
      "type": "function"
    }
  ],
  "transactionHash": "0x2de7b7f6e7d37372bd0f3825bb724bebf79e7cbab4f6bc19f59a8fa919c2af71",
  "args": [
    "0x8103B0A8A00be2DDC778e6e7eaa21791Cd364625",
    "10000000000000000",
    "0x474e34a077df58807dbe9c96d3c009b23b3c6d0cce433e59bbf5b34f823bc56c",
    "6926",
    "50000",
    "30"
  ],
  "numDeployments": 1,
  "solcInputHash": "94cb322d24d916990b7eb49de3f7d4b6",
  "bytecode": "0x6101606040523480156200001257600080fd5b5060405162001a1e38038062001a1e8339818101604052810190620000389190620001ad565b858073ffffffffffffffffffffffffffffffffffffffff1660808173ffffffffffffffffffffffffffffffffffffffff1660601b81525050508460a081815250508573ffffffffffffffffffffffffffffffffffffffff1660c08173ffffffffffffffffffffffffffffffffffffffff1660601b815250508360e081815250508267ffffffffffffffff166101008167ffffffffffffffff1660c01b815250508163ffffffff166101208163ffffffff1660e01b815250506000600260006101000a81548160ff02191690836001811115620001195762000118620002b5565b5b0217905550426001819055508061014081815250505050505050506200036b565b6000815190506200014b81620002e9565b92915050565b600081519050620001628162000303565b92915050565b60008151905062000179816200031d565b92915050565b600081519050620001908162000337565b92915050565b600081519050620001a78162000351565b92915050565b60008060008060008060c08789031215620001cd57620001cc620002e4565b5b6000620001dd89828a016200013a565b9650506020620001f089828a0162000168565b95505060406200020389828a0162000151565b94505060606200021689828a0162000196565b93505060806200022989828a016200017f565b92505060a06200023c89828a0162000168565b9150509295509295509295565b6000620002568262000267565b9050919050565b6000819050919050565b600073ffffffffffffffffffffffffffffffffffffffff82169050919050565b6000819050919050565b600063ffffffff82169050919050565b600067ffffffffffffffff82169050919050565b7f4e487b7100000000000000000000000000000000000000000000000000000000600052602160045260246000fd5b600080fd5b620002f48162000249565b81146200030057600080fd5b50565b6200030e816200025d565b81146200031a57600080fd5b50565b620003288162000287565b81146200033457600080fd5b50565b620003428162000291565b81146200034e57600080fd5b50565b6200035c81620002a1565b81146200036857600080fd5b50565b60805160601c60a05160c05160601c60e0516101005160c01c6101205160e01c61014051611630620003ee600039600081816108d9015261096f0152600061073401526000610711015260006106f00152600081816106b401526109d401526000818161038801526104850152600081816103c5015261041901526116306000f3fe6080604052600436106100e85760003560e01c8063473f1ddc1161008a57806391ad27b41161005957806391ad27b4146102c6578063ae771f6b146102f1578063aebc45501461032e578063fd6673f514610359576100e8565b8063473f1ddc1461020757806353a2c19a146102325780635f1b0fd81461025d5780636e04ff0d14610288576100e8565b80632cfcc539116100c65780632cfcc5391461016c578063320229eb146101765780634585e33b146101a1578063460e2049146101ca576100e8565b806309bc33a7146100ed578063115cbaf5146101185780631fe543e314610143575b600080fd5b3480156100f957600080fd5b50610102610384565b60405161010f91906111d3565b60405180910390f35b34801561012457600080fd5b5061012d6103ac565b60405161013a91906111b8565b60405180910390f35b34801561014f57600080fd5b5061016a60048036038101906101659190610f58565b6103c3565b005b610174610483565b005b34801561018257600080fd5b5061018b6105f2565b60405161019891906111d3565b60405180910390f35b3480156101ad57600080fd5b506101c860048036038101906101c39190610e68565b6105fc565b005b3480156101d657600080fd5b506101f160048036038101906101ec9190610efe565b6107fc565b6040516101fe91906110bb565b60405180910390f35b34801561021357600080fd5b5061021c610843565b60405161022991906110bb565b60405180910390f35b34801561023e57600080fd5b5061024761086d565b6040516102549190611225565b60405180910390f35b34801561026957600080fd5b50610272610876565b60405161027f91906111d3565b60405180910390f35b34801561029457600080fd5b506102af60048036038101906102aa9190610eb5565b610883565b6040516102bd92919061111a565b60405180910390f35b3480156102d257600080fd5b506102db61096b565b6040516102e891906111d3565b60405180910390f35b3480156102fd57600080fd5b5061031860048036038101906103139190610efe565b610993565b60405161032591906110d6565b60405180910390f35b34801561033a57600080fd5b506103436109d2565b604051610350919061119d565b60405180910390f35b34801561036557600080fd5b5061036e6109f6565b60405161037b91906111d3565b60405180910390f35b60007f0000000000000000000000000000000000000000000000000000000000000000905090565b6000600260009054906101000a900460ff16905090565b7f000000000000000000000000000000000000000000000000000000000000000073ffffffffffffffffffffffffffffffffffffffff163373ffffffffffffffffffffffffffffffffffffffff161461047557337f00000000000000000000000000000000000000000000000000000000000000006040517f1cf993f400000000000000000000000000000000000000000000000000000000815260040161046c9291906110f1565b60405180910390fd5b61047f8282610a02565b5050565b7f00000000000000000000000000000000000000000000000000000000000000003410156104dd576040517f53909cba00000000000000000000000000000000000000000000000000000000815260040160405180910390fd5b600060018111156104f1576104f0611510565b5b600260009054906101000a900460ff16600181111561051357610512611510565b5b1461054a576040517f9a41a9f900000000000000000000000000000000000000000000000000000000815260040160405180910390fd5b6000339080600181540180825580915050600190039060005260206000200160009091909190916101000a81548173ffffffffffffffffffffffffffffffffffffffff021916908373ffffffffffffffffffffffffffffffffffffffff1602179055503373ffffffffffffffffffffffffffffffffffffffff167f742d070bf0f3edace132a9da8ba725e8cf99c478869cee7f673ed6085e2f8e6460405160405180910390a2565b6000600154905090565b600061061660405180602001604052806000815250610883565b509050806106855747600080549050600260009054906101000a900460ff16600181111561064757610646611510565b5b6040517f6acd5de900000000000000000000000000000000000000000000000000000000815260040161067c939291906111ee565b60405180910390fd5b6001600260006101000a81548160ff021916908360018111156106ab576106aa611510565b5b021790555060007f000000000000000000000000000000000000000000000000000000000000000073ffffffffffffffffffffffffffffffffffffffff16635d3b1d307f00000000000000000000000000000000000000000000000000000000000000007f000000000000000000000000000000000000000000000000000000000000000060037f000000000000000000000000000000000000000000000000000000000000000060016040518663ffffffff1660e01b815260040161077595949392919061114a565b602060405180830381600087803b15801561078f57600080fd5b505af11580156107a3573d6000803e3d6000fd5b505050506040513d601f19601f820116820180604052508101906107c79190610f2b565b9050807fe0abfa81226f1e2ce09ba287cbb4c241e89b2b891a389274bb7d9c46e344daf060405160405180910390a250505050565b60008082815481106108115761081061153f565b5b9060005260206000200160009054906101000a900473ffffffffffffffffffffffffffffffffffffffff169050919050565b6000600260019054906101000a900473ffffffffffffffffffffffffffffffffffffffff16905090565b60006001905090565b6000600361ffff16905090565b600060606000600260009054906101000a900460ff1660018111156108ab576108aa611510565b5b600060018111156108bf576108be611510565b5b1490506000806000805490501190506000804711905060007f00000000000000000000000000000000000000000000000000000000000000006001544261090691906112e9565b1190508380156109135750825b801561091c5750815b80156109255750805b9550856040518060400160405280600381526020017f30783000000000000000000000000000000000000000000000000000000000008152509550955050505050915091565b60007f0000000000000000000000000000000000000000000000000000000000000000905090565b600081815481106109a357600080fd5b906000526020600020016000915054906101000a900473ffffffffffffffffffffffffffffffffffffffff1681565b7f000000000000000000000000000000000000000000000000000000000000000081565b60008080549050905090565b6000808054905082600081518110610a1d57610a1c61153f565b5b6020026020010151610a2f9190611481565b90506000808281548110610a4657610a4561153f565b5b9060005260206000200160009054906101000a900473ffffffffffffffffffffffffffffffffffffffff16905080600260016101000a81548173ffffffffffffffffffffffffffffffffffffffff021916908373ffffffffffffffffffffffffffffffffffffffff160217905550600067ffffffffffffffff811115610acf57610ace61156e565b5b604051908082528060200260200182016040528015610afd5781602001602082028036833780820191505090505b5060009080519060200190610b13929190610c33565b506000600260006101000a81548160ff02191690836001811115610b3a57610b39611510565b5b02179055504260018190555060008173ffffffffffffffffffffffffffffffffffffffff1647604051610b6c906110a6565b60006040518083038185875af1925050503d8060008114610ba9576040519150601f19603f3d011682016040523d82523d6000602084013e610bae565b606091505b5050905080610be9576040517f835b702e00000000000000000000000000000000000000000000000000000000815260040160405180910390fd5b8173ffffffffffffffffffffffffffffffffffffffff167fb858f78c6ef3de6c040cd394535543e98132bc3c33d1e98398f4f878915b6ba960405160405180910390a25050505050565b828054828255906000526020600020908101928215610cac579160200282015b82811115610cab5782518260006101000a81548173ffffffffffffffffffffffffffffffffffffffff021916908373ffffffffffffffffffffffffffffffffffffffff16021790555091602001919060010190610c53565b5b509050610cb99190610cbd565b5090565b5b80821115610cd6576000816000905550600101610cbe565b5090565b6000610ced610ce884611265565b611240565b90508083825260208201905082856020860282011115610d1057610d0f6115a7565b5b60005b85811015610d405781610d268882610e3e565b845260208401935060208301925050600181019050610d13565b5050509392505050565b6000610d5d610d5884611291565b611240565b905082815260208101848484011115610d7957610d786115ac565b5b610d8484828561140e565b509392505050565b600082601f830112610da157610da06115a2565b5b8135610db1848260208601610cda565b91505092915050565b60008083601f840112610dd057610dcf6115a2565b5b8235905067ffffffffffffffff811115610ded57610dec61159d565b5b602083019150836001820283011115610e0957610e086115a7565b5b9250929050565b600082601f830112610e2557610e246115a2565b5b8135610e35848260208601610d4a565b91505092915050565b600081359050610e4d816115e3565b92915050565b600081519050610e62816115e3565b92915050565b60008060208385031215610e7f57610e7e6115b6565b5b600083013567ffffffffffffffff811115610e9d57610e9c6115b1565b5b610ea985828601610dba565b92509250509250929050565b600060208284031215610ecb57610eca6115b6565b5b600082013567ffffffffffffffff811115610ee957610ee86115b1565b5b610ef584828501610e10565b91505092915050565b600060208284031215610f1457610f136115b6565b5b6000610f2284828501610e3e565b91505092915050565b600060208284031215610f4157610f406115b6565b5b6000610f4f84828501610e53565b91505092915050565b60008060408385031215610f6f57610f6e6115b6565b5b6000610f7d85828601610e3e565b925050602083013567ffffffffffffffff811115610f9e57610f9d6115b1565b5b610faa85828601610d8c565b9150509250929050565b610fbd8161132f565b82525050565b610fcc8161131d565b82525050565b610fdb81611341565b82525050565b610fea8161134d565b82525050565b6000610ffb826112c2565b61100581856112cd565b935061101581856020860161141d565b61101e816115bb565b840191505092915050565b611032816113c6565b82525050565b611041816113d8565b82525050565b60006110546000836112de565b915061105f826115cc565b600082019050919050565b6110738161136a565b82525050565b61108281611398565b82525050565b611091816113a2565b82525050565b6110a0816113b2565b82525050565b60006110b182611047565b9150819050919050565b60006020820190506110d06000830184610fc3565b92915050565b60006020820190506110eb6000830184610fb4565b92915050565b60006040820190506111066000830185610fc3565b6111136020830184610fc3565b9392505050565b600060408201905061112f6000830185610fd2565b81810360208301526111418184610ff0565b90509392505050565b600060a08201905061115f6000830188610fe1565b61116c6020830187611097565b611179604083018661106a565b6111866060830185611088565b6111936080830184611088565b9695505050505050565b60006020820190506111b26000830184611029565b92915050565b60006020820190506111cd6000830184611038565b92915050565b60006020820190506111e86000830184611079565b92915050565b60006060820190506112036000830186611079565b6112106020830185611079565b61121d6040830184611079565b949350505050565b600060208201905061123a6000830184611088565b92915050565b600061124a61125b565b90506112568282611450565b919050565b6000604051905090565b600067ffffffffffffffff8211156112805761127f61156e565b5b602082029050602081019050919050565b600067ffffffffffffffff8211156112ac576112ab61156e565b5b6112b5826115bb565b9050602081019050919050565b600081519050919050565b600082825260208201905092915050565b600081905092915050565b60006112f482611398565b91506112ff83611398565b925082821015611312576113116114b2565b5b828203905092915050565b600061132882611378565b9050919050565b600061133a82611378565b9050919050565b60008115159050919050565b6000819050919050565b6000819050611365826115cf565b919050565b600061ffff82169050919050565b600073ffffffffffffffffffffffffffffffffffffffff82169050919050565b6000819050919050565b600063ffffffff82169050919050565b600067ffffffffffffffff82169050919050565b60006113d1826113ea565b9050919050565b60006113e382611357565b9050919050565b60006113f5826113fc565b9050919050565b600061140782611378565b9050919050565b82818337600083830152505050565b60005b8381101561143b578082015181840152602081019050611420565b8381111561144a576000848401525b50505050565b611459826115bb565b810181811067ffffffffffffffff821117156114785761147761156e565b5b80604052505050565b600061148c82611398565b915061149783611398565b9250826114a7576114a66114e1565b5b828206905092915050565b7f4e487b7100000000000000000000000000000000000000000000000000000000600052601160045260246000fd5b7f4e487b7100000000000000000000000000000000000000000000000000000000600052601260045260246000fd5b7f4e487b7100000000000000000000000000000000000000000000000000000000600052602160045260246000fd5b7f4e487b7100000000000000000000000000000000000000000000000000000000600052603260045260246000fd5b7f4e487b7100000000000000000000000000000000000000000000000000000000600052604160045260246000fd5b600080fd5b600080fd5b600080fd5b600080fd5b600080fd5b600080fd5b6000601f19601f8301169050919050565b50565b600281106115e0576115df611510565b5b50565b6115ec81611398565b81146115f757600080fd5b5056fea26469706673582212201a36a9e48089f5a25101bc75af7a73b37ef5dfe952be40bd77aed35a1f43d45364736f6c63430008070033",
  "devdoc": {
    "kind": "dev",
    "methods": {},
    "version": 1
  },
  "userdoc": {
    "kind": "user",
    "methods": {},
    "version": 1
  },
  "storageLayout": {
    "storage": [
      {
        "astId": 242,
        "contract": "contracts/Raffle.sol:Raffle",
        "label": "s_players",
        "offset": 0,
        "slot": "0",
        "type": "t_array(t_address_payable)dyn_storage"
      },
      {
        "astId": 259,
        "contract": "contracts/Raffle.sol:Raffle",
        "label": "s_lastTimeStamp",
        "offset": 0,
        "slot": "1",
        "type": "t_uint256"
      },
      {
        "astId": 264,
        "contract": "contracts/Raffle.sol:Raffle",
        "label": "s_raffleState",
        "offset": 0,
        "slot": "2",
        "type": "t_enum(RaffleState)237"
      },
      {
        "astId": 278,
        "contract": "contracts/Raffle.sol:Raffle",
        "label": "s_recentWinner",
        "offset": 1,
        "slot": "2",
        "type": "t_address"
      }
    ],
    "types": {
      "t_address": {
        "encoding": "inplace",
        "label": "address",
        "numberOfBytes": "20"
      },
      "t_address_payable": {
        "encoding": "inplace",
        "label": "address payable",
        "numberOfBytes": "20"
      },
      "t_array(t_address_payable)dyn_storage": {
        "base": "t_address_payable",
        "encoding": "dynamic_array",
        "label": "address payable[]",
        "numberOfBytes": "32"
      },
      "t_enum(RaffleState)237": {
        "encoding": "inplace",
        "label": "enum Raffle.RaffleState",
        "numberOfBytes": "1"
      },
      "t_uint256": {
        "encoding": "inplace",
        "label": "uint256",
        "numberOfBytes": "32"
      }
    }
  }
}